:020000040000fa
:080000000002040000000000f2
:020000040000fa
:0400080002030000ef
:020000040000fa
:04000c0044030000a9
:020000040000fa
:04001000a403000045
:020000040000fa
:0400140022030000c3
:020000040000fa
:04001800640300007d
:020000040000fa
:04001c008403000059
:020000040000fa
:04002000c403000015
:020000040000fa
:0400240016040000be
:020000040000fa
:0400280016040000ba
:020000040000fa
:04002c0016040000b6
:020000040000fa
:0400300016040000b2
:020000040000fa
:04003400f0030000d5
:020000040000fa
:0400380016040000aa
:020000040000fa
:04003c0016040000a6
:020000040000fa
:0400400016040000a2
:020000040000fa
:04004400160400009e
:020000040000fa
:04004800160400009a
:020000040000fa
:04004c001604000096
:020000040000fa
:040050001604000092
:020000040000fa
:04005400160400008e
:020000040000fa
:04005800160400008a
:020000040000fa
:04005c001604000086
:020000040000fa
:040060001604000082
:020000040000fa
:04006400160400007e
:020000040000fa
:04006800160400007a
:020000040000fa
:04006c001604000076
:020000040000fa
:040070001604000072
:020000040000fa
:04007400160400006e
:020000040000fa
:04007800160400006a
:020000040000fa
:04007c001604000066
:020000040000fa
:040080001604000062
:020000040000fa
:04008400160400005e
:020000040000fa
:04008800160400005a
:020000040000fa
:04008c001604000056
:020000040000fa
:040090001604000052
:020000040000fa
:04009400160400004e
:020000040000fa
:04009800160400004a
:020000040000fa
:04009c001604000046
:020000040000fa
:0400a0001604000042
:020000040000fa
:0400a400160400003e
:020000040000fa
:0400a800160400003a
:020000040000fa
:0400ac001604000036
:020000040000fa
:0400b0001604000032
:020000040000fa
:0400b400160400002e
:020000040000fa
:0400b800160400002a
:020000040000fa
:0400bc001604000026
:020000040000fa
:0400c0001604000022
:020000040000fa
:0400c400160400001e
:020000040000fa
:0400c800160400001a
:020000040000fa
:0400cc001604000016
:020000040000fa
:0400d0001604000012
:020000040000fa
:0400d400160400000e
:020000040000fa
:0400d800160400000a
:020000040000fa
:0400dc001604000006
:020000040000fa
:0400e0001604000002
:020000040000fa
:0400e40016040000fe
:020000040000fa
:0400e80016040000fa
:020000040000fa
:0400ec0016040000f6
:020000040000fa
:0400f00016040000f2
:020000040000fa
:0400f40016040000ee
:020000040000fa
:0400f80016040000ea
:020000040000fa
:0400fc0016040000e6
:020000040000fa
:0401000016040000e1
:020000040000fa
:0401040016040000dd
:020000040000fa
:0401080016040000d9
:020000040000fa
:04010c0016040000d5
:020000040000fa
:0401100016040000d1
:020000040000fa
:0401140016040000cd
:020000040000fa
:0401180016040000c9
:020000040000fa
:04011c0016040000c5
:020000040000fa
:0401200016040000c1
:020000040000fa
:0401240016040000bd
:020000040000fa
:0401280016040000b9
:020000040000fa
:04012c0016040000b5
:020000040000fa
:0401300016040000b1
:020000040000fa
:0401340016040000ad
:020000040000fa
:0401380016040000a9
:020000040000fa
:04013c0016040000a5
:020000040000fa
:0401400016040000a1
:020000040000fa
:04014400160400009d
:020000040000fa
:040148001604000099
:020000040000fa
:04014c001604000095
:020000040000fa
:040150001604000091
:020000040000fa
:04015400160400008d
:020000040000fa
:040158001604000089
:020000040000fa
:04015c001604000085
:020000040000fa
:040160001604000081
:020000040000fa
:04016400160400007d
:020000040000fa
:040168001604000079
:020000040000fa
:04016c001604000075
:020000040000fa
:040170001604000071
:020000040000fa
:04017400160400006d
:020000040000fa
:040178001604000069
:020000040000fa
:04017c001604000065
:020000040000fa
:040180001604000061
:020000040000fa
:04018400160400005d
:020000040000fa
:040188001604000059
:020000040000fa
:04018c001604000055
:020000040000fa
:040190001604000051
:020000040000fa
:04019400160400004d
:020000040000fa
:040198001604000049
:020000040000fa
:04019c001604000045
:020000040000fa
:0401a0001604000041
:020000040000fa
:0401a400160400003d
:020000040000fa
:0401a8001604000039
:020000040000fa
:0401ac001604000035
:020000040000fa
:0401b0001604000031
:020000040000fa
:0401b400160400002d
:020000040000fa
:0401b8001604000029
:020000040000fa
:0401bc001604000025
:020000040000fa
:0401c0001604000021
:020000040000fa
:0401c400160400001d
:020000040000fa
:0401c8001604000019
:020000040000fa
:0401cc001604000015
:020000040000fa
:0401d0001604000011
:020000040000fa
:0401d400160400000d
:020000040000fa
:0401d8001604000009
:020000040000fa
:0401dc001604000005
:020000040000fa
:0401e0001604000001
:020000040000fa
:0401e40016040000fd
:020000040000fa
:0401e80016040000f9
:020000040000fa
:0401ec0016040000f5
:020000040000fa
:0401f00016040000f1
:020000040000fa
:0401f40016040000ed
:020000040000fa
:0401f80016040000e9
:020000040000fa
:0401fc0016040000e5
:020000040000fa
:0402000016040000e0
:020000040000fa
:0402040016040000dc
:020000040000fa
:0402080016040000d8
:020000040000fa
:04020c0016040000d4
:020000040000fa
:0402100016040000d0
:020000040000fa
:0402140016040000cc
:020000040000fa
:0402180016040000c8
:020000040000fa
:04021c0016040000c4
:020000040000fa
:0402200016040000c0
:020000040000fa
:0402240016040000bc
:020000040000fa
:0402280016040000b8
:020000040000fa
:04022c0016040000b4
:020000040000fa
:0402300016040000b0
:020000040000fa
:0402340016040000ac
:020000040000fa
:0402380016040000a8
:020000040000fa
:04023c0016040000a4
:020000040000fa
:0402400016040000a0
:020000040000fa
:04024400160400009c
:020000040000fa
:040248001604000098
:020000040000fa
:04024c001604000094
:020000040000fa
:040250001604000090
:020000040000fa
:04025400160400008c
:020000040000fa
:040258001604000088
:020000040000fa
:04025c001604000084
:020000040000fa
:040260001604000080
:020000040000fa
:04026400160400007c
:020000040000fa
:040268001604000078
:020000040000fa
:04026c001604000074
:020000040000fa
:040270001604000070
:020000040000fa
:04027400160400006c
:020000040000fa
:040278001604000068
:020000040000fa
:04027c001604000064
:020000040000fa
:040280001604000060
:020000040000fa
:100400000f0721000eff22000e01880000000000ef
:10041000000020000000e000020032000001200087
:100420002002880014000700020107000000e0001d
:1004300003003a0040c720000100200002003700fe
:100440000000200001002000810f70000100320038
:100450000f000700000020000000e0000200320052
:100460000000020000000000500d0200000000002b
:100470000040da000000fe00200020000000e00044
:1004800002003200100020009001880000000600e9
:10049000a1028800800478000000eb001f003700f4
:1004a000e284440054a0b4009905ba00e2844400f8
:1004b00054a0b4009906ba00e284440054a0b400e9
:1004c0000006eb00476fde00fd07b200ae018800ba
:1004d000636ce10003003a000ad801000000eb0061
:1004e0000e003700606ce10008003a00004deb00a0
:1004f0000a05e800020039003420ec000af0a000f0
:100500008b05e900f9ff3e00040037006168e10057
:10051000010032000086eb000b00070019c7ba008b
:100520000e04e0001905ba0003003a000a00e000da
:10053000dbff3a0000000600fe07b200ae028800b2
:100540008a047800f5ff37000cd0a300e20f4d00bd
:100550001c00390089027800354dba000a05e80010
:10056000020039003420ec000af0a0008b05e900fd
:100570000f003200254dba000a05e80002003900dc
:100580003420ec000af0a0008b05e90008003200de
:100590000c00e0000600320015cdba000a05e800a4
:1005a000020039003420ec000af0a0008b05e900bd
:1005b0008984e80054a0b4000b00e000e2ff3a0098
:1005c000000006009902ba00055d78008b05e9007d
:1005d000f7ff3200c82ade00055d78008b05e900d0
:1005e000f3ff32000c00e000f1ff320019ddba0029
:1005f000eeff3700000000000000000000000000d7
:10060000000000003600f800809fbe00829fbe0000
:10061000849fbe00869fbe000000fa00c028a9008b
:100620000000eb00120507000080fa004f03be0037
:100630004f02be004f01be004f00be003600f90061
:10064000004006003600f800809fbe00829fbe007a
:10065000849fbe00869fbe000000fa0009050700c7
:10066000c048a90010002000010507000080fa0022
:100670004f03be004f02be004f01be004f00be0040
:100680003600f900004006003600f800809fbe00ea
:10069000829fbe00849fbe00869fbe000000fa00bd
:1006a000c068a90020002000f10407000080fa00c3
:1006b0004f03be004f02be004f01be004f00be0000
:1006c0003600f900004006003600f800809fbe00aa
:1006d000829fbe00849fbe00869fbe000000fa007d
:1006e000c088a90030002000e10407000080fa0063
:1006f0004f03be004f02be004f01be004f00be00c0
:100700003600f900004006003600f800809fbe0069
:10071000829fbe00849fbe00869fbe000000fa003c
:10072000c0a8a90040002000d10407000080fa0002
:100730004f03be004f02be004f01be004f00be007f
:100740003600f900004006003600f800809fbe0029
:10075000829fbe00849fbe00869fbe000000fa00fc
:10076000c608a90070002000c10407000080fa003c
:100770004f03be004f02be004f01be004f00be003f
:100780003600f900004006003600f800809fbe00e9
:10079000829fbe00849fbe00869fbe000000fa00bc
:1007a0002146800000022000008060000000e00080
:1007b00003003200c4a8a90090002000ac04070088
:1007c00020468000700060000000e000030032005e
:1007d000c488a900a0002000a5040700ffff37007f
:1007e000809fbe000000fa0010c0b30022f0b700e6
:1007f000208180000000e80020818800f0062100b0
:10080000104078008040e800f006210001487800a0
:10081000e006210011c0b300014878000068a9007b
:100820000080fa004f00be00004006000040da00e1
:100830000000fe00000005000001be0021000700ce
:100840000470a70003f0a1006509b1001600320092
:100850000d0035006828e10006003500f0ff2f008c
:10086000f1ff27000300e00013003b000100280017
:100870000000050000004000818048008502e9007a
:10088000fcff3a0008003700f88f420002003c00ed
:100890008000eb00000005008100d1000080d30043
:1008a0008502e800fcff3a000300e00002003b0084
:1008b00060001000e0801800000006006011b80021
:1008c00025003700c70ade00f107b200f50fb200bd
:1008d00008003200e1cf4200020032000170a000a7
:1008e00024000500810f700001003200040805009b
:1008f00044000500810f700002003a00140005005a
:100900008502e9000000400081c04800fcff3b0078
:100910000170a000240005006022b800060220003b
:100920000000d0008180d2000482d2008582d200f3
:100930000000a0000202520083825a00030031002e
:100940000202420083824a000000a1000603e9007f
:10095000f3ff3a0000000600889fbe008a9fbe0099
:1009600000827000040271000482710026003200cf
:100970000004be000200be006011b8006b09200038
:10098000950220000182cf000a0039000541b10024
:100990000082cf00070039000541b1000982cf0075
:1009a000040039000541b1000882cf000100390080
:1009b0000541b10005425200120032000a003b001e
:1009c00082817100610164008100d1000080d30048
:1009d0008984d3000884d3008b05e8000442e80032
:1009e000f7ff3a00070037000804440089844c00f0
:1009f00000004800818048008b05e9000442e900be
:100a0000f9ff3a00030007004f05be004f04be0087
:100a10000000060081002000618055000b003d00b1
:100a20000b00200061fe2f000100e1001d003400da
:100a300082817100610164008904d1000884d300bf
:100a40000000e800faff3a00710020006100640035
:100a500003007000020060000900320061044400dd
:100a6000e0844c000988a500050032008b05e800f1
:100a70006808e10002003a008904d1000884d3002c
:100a8000f20f20000258e10005003d00c75ddd00c7
:100a9000f907b200898075000800780000000600a0
:0c0aa0000bf827008b0078000000050018
:020000040000fa
:100aac000000fa00662cef0015aea900262cef0012
:100abc00156ea900462cef0015eea9000080fa0077
:100acc00000006000000fa00044ea800046ea90005
:100adc002430ef0040962100b08088004096210021
:100aec0080818800803e2000708188000c30ef00ef
:100afc0008003700e09e200001002000cb03070017
:100b0c000040eb00d8000700608080000000e80087
:100b1c00608088006180800070382100808f5000d8
:100b2c00f4ff3600609b2a0001042000bf0307007d
:100b3c000c30ef0008003700f034200001002000da
:100b4c00ba03070010c0b300c70007006080800024
:100b5c000000e8006080880061808000f070220056
:100b6c00808f5000f4ff3600cdff0700609b2a00f9
:100b7c0001042000ad030700046ea800044ea90078
:100b8c000080fa00000006000000fa00907080005f
:100b9c00700060000000e0002400320004d0bf00b0
:100bac000004e0001b003a008180800082808000fd
:100bbc0090808000000041000001780011000900c5
:100bcc008280d80080007800803e20008088b900a8
:100bdc008000eb0036ff0700e0808800f180880081
:100bec00e0808000f180800010ff0700000078009a
:100bfc00a0808800a1808000300b2000808f5000e6
:100c0c0002003e00400b2000a08088001030ef0056
:100c1c001230ef00808080000000e80080808800a7
:100c2c0010c0b30004f0b7000400370090808000bf
:100c3c000000e800908088000470ef000080fa004b
:100c4c00000006000000fa0001d0bf000004a20062
:100c5c000004e00031003200b0808000e20f500050
:100c6c0015003600b180800000192000808f5000e4
:100c7c0006003600b1808000b08080004800de00a5
:100c8c0000805000b08088006a00370070808000bf
:100c9c000000e8007080880070808000e40f500035
:100cac00640036000e30ef00b08080000000e900d8
:100cbc00b08088005f00370071818000400b2000fd
:100ccc00808f500004003600708180000000e90025
:100cdc00708188005700370010c0b30001f0b700d6
:100cec000c30ef000900370060808000b18080007c
:100cfc00000140006005210000004100010878005f
:100d0c00608080000000e8006080880060808000c7
:100d1c00e50f5000f4ff3600460037000630ef00b8
:100d2c000830ef000c30ef000f00370060808000bf
:100d3c008000400060052100008040001000780019
:100d4c006101b800308080004180800002004000ca
:100d5c00838048003080880041808800608080005b
:100d6c000000e8006080880060808000e50f500083
:100d7c00eeff360030808000418080006200200051
:100d8c0003002000e1fe07003080880041808800cd
:100d9c00708080000000e800708088007080800007
:100dac00ea0f5000230036000e30ef0040382000d0
:100dbc00a0808800a180800070818000808f50000e
:100dcc0004003600708180000000e800708188000b
:100ddc0003003700708180000000e90070818800fa
:100dec00b08080006101b8003080800041808000bc
:100dfc00800f5100818f59000e003200b0808000ae
:100e0c006101b8003080800041808000800f51006b
:100e1c00818f590004003600b08080000000e9008a
:100e2c00b080880003003700b08080000000e8002c
:100e3c00b08088000080fa00000006000000fa0074
:100e4c0021818000b0808000808f50000400390028
:100e5c002430ef007bff070000d0bf00020007002a
:100e6c000080fa00000006000800fa0060479800b5
:100e7c00b1808000b0aa2a000008b8000100d1009f
:100e8c00000f78002cd0bf000040e8002cf0b70019
:100e9c000270ef000000eb00100798000000eb0060
:100eac00200798002cd0bf000080fb00e30f5000ff
:100ebc0048003200e30f500005003c00e10f5000e9
:100ecc000a003200e20f50000c003200b90037006b
:100edc00e50f500079003200e50f5000410035005d
:100eec00e60f500079003200b2003700662cef009c
:100efc007081800030618800ae00370015aea9000b
:100f0c00156ea800508080000000e800508088001a
:100f1c0001d0bf000004e000a3003200280037001d
:100f2c00208180009e0f5000250039002023a9004d
:100f3c000000000000198000610060000000e0006b
:100f4c00fcff320001188000110798002018800067
:100f5c000000d100200798009e0090002e00900009
:100f6c00808f500016003900207080004200de0097
:100f7c00614060000004a200614060000080fb0042
:100f8c00610060004200dd00217080000120a100a2
:100f9c000100700020708800508080002281800049
:100fac00218180008100410000014000600521008a
:100fbc00000041000108780010c0b30002f0b70037
:100fcc0002d0bf000004a2000004e000d4ff3a00ed
:100fdc0078003700262cef0070818000306288008a
:100fec0074003700156ea90015eea8005080800023
:100ffc000000e8005080880001d0bf000004e00031
:10100c006b00320028003700208180009e0f5000ba
:10101c00250039002023a9000000000000198000e1
:10102c00610060000000e000fcff3200111880003d
:10103c0011079800001880000000d10020079800cc
:10104c009e0090002e009000808f500016003900fa
:10105c00207080004200de00614060000004a200ad
:10106c00614060000080fb00610060004200dd0018
:10107c00217080000120a100010070002070880008
:10108c0050808000228180002181800081004100fd
:10109c0000014000600521000000410001087800bb
:1010ac0010c0b30002f0b70002d0bf000004a200d1
:1010bc000004e000d4ff3a003e003700462cef005d
:1010cc0070818000306388003a00370015eea9006b
:1010dc0015aea800508080000000e8005080880009
:1010ec0001d0bf000004e0002d00320028003700c2
:1010fc00208180009e0f5000250039002023a9007c
:10110c000000000000198000610060000000e00099
:10111c00fcff320021188000110798001018800085
:10112c000000d100200798009e0090002e00900037
:10113c00808f500016003900207080004200de00c5
:10114c00614060000004a200614060000080fb0070
:10115c00610060004200dd00217080000120a100d0
:10116c000100700020708800508080002281800077
:10117c0021818000810041000001400060052100b8
:10118c00000041000108780010c0b30002f0b70065
:10119c0002d0bf000004a2000004e000d4ff3a001b
:1011ac002c70ef0003003700000000000100370036
:1011bc000000000050808000e50f50000100360058
:1011cc000a30ef000080fa00000006000000fa0070
:1011dc001000200010608800803e200020608800f5
:1011ec00062cef000a2cef001a2cef001e2cef003f
:1011fc001028200000618800102820000062880060
:10120c00102820000063880000002800e3c12000a3
:10121c0011322400d2bc2a0082097800810978009e
:10122c001061880000002800e3c120001132240066
:10123c00d2bc2a00820978008109780010628800eb
:10124c0000002800e3c1200011322400d2bc2a0087
:10125c00820978008109780010638800b00f2000a3
:10126c00e3c1200011322400d2bc2a00820978008c
:10127c008109780020618800b00f2000e3c12000b4
:10128c0011322400d2bc2a0082097800810978002e
:10129c0020628800b00f2000e3c12000113224002e
:1012ac00d2bc2a008209780081097800206388006a
:1012bc00262cef00462cef00662cef00803e200021
:1012cc0040618800803e200040628800803e200003
:1012dc00406388002a2cef004a2cef006a2cef00a8
:1012ec002c2cef004c2cef006c2cef00322cef0070
:1012fc00522cef00722cef00342cef00542cef002a
:10130c00742cef003a2cef005a2cef007a2cef00e3
:10131c003c2cef005c2cef007c2cef003e2cef0003
:10132c005e2cef007e2cef0000402800006088004f
:10133c000080fa00000006000000fa000080fa00ad
:10134c00000006000000fa00314080000020200060
:10135c00008060000000e00002003200f6ff070091
:10136c000728a9000080fa00000006000000fa001f
:10137c000080fa00000006000000fa0031408000f6
:10138c0000202000008060000000e000020032001d
:10139c00f6ff07000bc8a9000080fa000000060049
:1013ac000000fa000080fa00000006000000fa00bd
:1013bc003140800000202000008060000000e00030
:1013cc0002003200f6ff07000be8a9000080fa00cb
:1013dc00000006000000fa000080fa000000060081
:1013ec000000fa00314080000020200000806000e6
:1013fc000000e00002003200f6ff07000c08a90014
:10140c000080fa00000006000000fa00003a80009c
:10141c000080fa00000006000200fa00faff070044
:10142c00000f78001e007800240007000004e00084
:10143c000200320000002800710007001e00780036
:10144c002a0007000004e000020032000000240023
:10145c006b0007001e007800320007000004e0005b
:10146c000200320000202000650007001e007800fa
:10147c003a0007000004e0000200320000082000df
:10148c005f0007001e007800420007000004e00027
:10149c000200320000042000590007001e007800f2
:1014ac004a0007000004e0000200320000012000a6
:1014bc00530007000080fa00000006000400fa0048
:1014cc00100798000040eb00004f78001e009000c1
:1014dc000000e00002003d0010c0b300004f780097
:1014ec001e4078000080fa00000006000400fa009c
:1014fc00100798000040eb00004f78009e00900011
:10150c0000002400008060000000e00002003200b7
:10151c0010c0b300004f78001e4078000080fa0025
:10152c00000006000400fa00100798000040eb00d1
:10153c00004f78009e00900000202000008060008a
:10154c000000e0000200320010c0b300004f780031
:10155c001e4078000080fa00000006000400fa002b
:10156c00100798000040eb00004f78009e009000a0
:10157c0000082000008060000000e0000200320043
:10158c0010c0b300004f78001e4078000080fa00b5
:10159c00000006000400fa00100798000040eb0061
:1015ac00004f78009e009000000420000080600036
:1015bc000000e0000200320010c0b300004f7800c1
:1015cc001e4078000080fa00000006000400fa00bb
:1015dc00100798000040eb00004f78001e009000b0
:1015ec00700060000000e0000200320010c0b30088
:1015fc00004f78001e4078000080fa0000000600c2
:10160c000200fa00000f78009e80ea00003a800089
:10161c0000806000003a88000080fa00000006009c
:10162c000000fa004027ef000080fa0000000600de
:10163c000000fa000021ef0040052000100888008f
:10164c000000280020088800008180000000e000d5
:10165c0002003a0060b72000240007000068a900cf
:10166c002068a800e00621008040eb0001487800cb
:10167c000080fa00000006000200fa00000f78005b
:10168c009e00780011088800e00621008040eb00e5
:10169c00014878000080fa00000006000000fa0003
:1016ac00100880000080fa00000006000200fa001a
:1016bc00000f78009e00780001088800e0062100e9
:1016cc008040eb00014878000080fa000000060022
:1016dc000000fa00000880000080fa0000000600fc
:1016ec000000fa000080fa00000006000200fa0078
:1016fc00000f78002068a9009e0078000181880006
:10170c002068a8000080fa00000006000000fa0023
:10171c00e00621008040eb00014878002068a8001a
:10172c0005e1a8000080fa00000006000000fa00a5
:10173c0005e1a9002068a9000080fa00000006005d
:10174c000200fa00e0062100104f78001e407800dd
:10175c000004e00003003200e00621008040eb00b2
:10176c00014878001e4078000080fa000000060056
:10177c000000fa00f0062100104078000080fb0009
:10178c000080fa00000006000000fa00f0062100bc
:10179c008040eb00014878000080fa000000060051
:1017ac000000fa0000042300203a88004827ef00cc
:1017bc004e27ef00a0052000303a88006027ef008c
:1017cc006227ef006427ef006627ef006a27ef001f
:1017dc006c27ef001200200080072000a1092000d8
:1017ec003374200080497800814978008249780060
:1017fc0012002000600420007105200023742000da
:10180c008049780081497800824978000000000006
:10181c00103a8000610060000000e000fcff3a001c
:10182c0000000000113a80000002200000806000df
:10183c000000e000fbff32000080fa000000060010
:10184c000000fa00400e280000198800002020003b
:10185c001019880030402000201988002823ef0040
:10186c002e23ef003023ef003223ef002623ef006e
:10187c0060c42000050007000080fa00000006008c
:10188c000000fa000080fa00000006000200fa00d6
:10189c00000f78001e007800a08188000080fa00fc
:1018ac00000006000000fa00014080000000220049
:1018bc00008060000000e00006003200a081800083
:1018cc000000e00002003200a08180000000010056
:0c18dc0001a8a9000080fa00000006002e
:020000040000fa
:1018e80036100000200000008000000032100000c8
:1018f8000200000082000000ffff00006e100000e0
:101908000200000080000000201000000600000017
:101918008000000034100000020000008000000079
:10192800261000000600000080000000561000008d
:101938000c00000082000000f00000000000000021
:101948000000000000000000621000000c00000011
:10195800800000000010000020000000800000004f
:101968002c10000006000000820000000300e800c0
:0819780003e70300000000007a
:020000040000fa
:101980000200fa00000f780021028000200f2000e2
:10199000008060001e007000200288000080fa00b5
:1019a000000006000000fa00c3e8a80000000000e4
:1019b000000000000080fa00000006000000fa00ad
:1019c0000a00070079ff0700410007009fff07009a
:1019d00001fe070019ff0700f2ff070000022000c8
:1019e000e7ff07000080fa00000006000000fa0090
:1019f000042eef00142eef0030002000007088004d
:101a0000b0072000807088000c2eef001c2eef0025
:101a10000a2eef001a2eef00062eef00162eef0012
:101a2000300020007070880010002000f0708800e6
:081a30000080fa00000006002e
:020000040000fa
:101a3800f03fb1000180b10006003500ee03090057
:101a480000000000403fb1000180b100fbff3d00f5
:101a58001000b000203fb0000200350000800900ef
:081a6800000000000000060070
:020000040000fa
:101a70000200fa00000f78009e0078009181880033
:101a8000ffff37000000fa006003210080077800a4
:101a9000e0042100000188000080fa000000060038
:101aa0000000fa00c5ff070009fc0700010037002d
:101ab0000000000022d0bf000004e000fcff320064
:101ac0002270ef00e0fc07000060fe00f9ff370025
:101ad0000000fa0001428000f0ff28000080600052
:101ae00000d0a000004288000080fa00000006003c
:020000040000fa
:020000040001f9
:045fe000ceff0000f0
:020000040000fa
:020000040001f9
:045fe400cfff0000eb
:020000040000fa
:020000040001f9
:045fe800f9ff0000bd
:020000040000fa
:020000040001f9
:045fec007bff000037
:020000040000fa
:020000040001f9
:045ff00078ff000036
:020000040000fa
:020000040001f9
:045ff400ffff0000ab
:00000001FF
